:020000040800F2
:1000000000280020510A0008E1090008E70900085B
:10001000ED090008F3090008F909000800000000D4
:10002000000000000000000000000000FF090008C0
:100030000B0A000800000000170A0008230A000845
:10004000990A0008990A0008990A0008990A000804
:10005000990A0008990A0008990A0008990A0008F4
:10006000990A0008990A0008990A0008990A0008E4
:10007000990A0008990A0008990A0008990A0008D4
:10008000990A0008990A0008310A0008990A00082C
:10009000990A0008990A0008990A0008990A0008B4
:1000A000990A0008990A0008990A0008990A0008A4
:1000B000990A0008990A000800000000990A00083F
:1000C000990A00080000000000000000990A0008DA
:1000D00000000000990A0008990A000800000000CA
:1000E000990A0008990A0008990A0008000000000F
:1000F0000000000000000000000000000000000000
:0C01000000000000000000005FF808F1A3
:10010C0010B5054C237833B9044B13B10448AFF345
:10011C0000800123237010BD0C00002000000000A3
:10012C002831000808B5034B1BB103490348AFF352
:10013C00008008BD000000001000002028310008DD
:10014C0080B582B000AF03460A46FB8013467B7134
:10015C007B79013B032B6FD801A252F823F000BF2F
:10016C007D010008AF010008E1010008130200083E
:10017C0000224FF40041CC4801F0A2FC01224FF4C4
:10018C008041C94801F09CFC01224FF40051C64843
:10019C0001F096FC01224FF48051C34801F090FC11
:1001AC0063E001224FF40041BF4801F089FC0022BA
:1001BC004FF48041BC4801F083FC01224FF4005104
:1001CC00B94801F07DFC01224FF48051B64801F092
:1001DC0077FC4AE001224FF40041B34801F070FC77
:1001EC0001224FF48041B04801F06AFC00224FF428
:1001FC000051AD4801F064FC01224FF48051AA4833
:10020C0001F05EFC31E001224FF40041A64801F000
:10021C0057FC01224FF48041A34801F051FC01220C
:10022C004FF40051A04801F04BFC00224FF48051D8
:10023C009D4801F045FC18E001224FF400419A481A
:10024C0001F03EFC01224FF48041974801F038FC4C
:10025C0001224FF40051944801F032FC01224FF47A
:10026C008051914801F02CFC00BF002240218F48A6
:10027C0001F026FC002220218C4801F021FC0022F8
:10028C0010218A4801F01CFC00220821874801F04B
:10029C0017FC00220421854801F012FC00220221E7
:1002AC00824801F00DFC00220121804801F008FC7D
:1002BC00FB88092B00F2168101A252F823F000BF33
:1002CC00F502000833030008490300087D03000809
:1002DC00B1030008DB0300080F0400084D040008FC
:1002EC006D040008BD040008012240216F4801F094
:1002FC00E7FB012220216D4801F0E2FB01221021D5
:10030C006A4801F0DDFB01220821684801F0D8FBA6
:10031C0001220421654801F0D3FB0122022163482C
:10032C0001F0CEFBDFE001222021604801F0C8FB88
:10033C00012210215D4801F0C3FBD4E001224021D1
:10034C005A4801F0BDFB01222021584801F0B8FBAE
:10035C0001220821554801F0B3FB01220421534826
:10036C0001F0AEFB01220121504801F0A9FBBAE0DB
:10037C00012240214D4801F0A3FB012220214B48D2
:10038C0001F09EFB01221021484801F099FB01224B
:10039C000821464801F094FB01220121434801F059
:1003AC008FFBA0E001222021404801F089FB0122B3
:1003BC0010213E4801F084FB012202213B4801F050
:1003CC007FFB01220121394801F07AFB8BE00122ED
:1003DC004021364801F074FB01221021334801F012
:1003EC006FFB01220821314801F06AFB0122022136
:1003FC002E4801F065FB012201212C4801F060FB25
:10040C0071E001224021294801F05AFB0122102100
:10041C00264801F055FB01220821244801F050FB2D
:10042C0001220421214801F04BFB012202211F482B
:10043C0001F046FB012201211C4801F041FB52E076
:10044C0001224021194801F03BFB012220211748D1
:10045C0001F036FB01221021144801F031FB42E07F
:10046C0001224021114801F02BFB012220210F48D1
:10047C0001F026FB012210210C4801F021FB012286
:10048C0008210A4801F01CFB01220421074801F055
:10049C0017FB01220221054801F012FB0122012168
:1004AC00024801F00DFB1EE000080140000C014069
:1004BC00012240210F4801F003FB012220210D48AD
:1004CC0001F0FEFA012210210A4801F0F9FA01228A
:1004DC000121084801F0F4FA01220221054801F03B
:1004EC00EFFA00E000BF642000F034FB00BF0837D7
:1004FC00BD4680BD000C014080B582B000AF00F05D
:10050C00C7FA00F089F800F063F900F017F900F071
:10051C00D7F83B4B00221A8000237B6015E039484A
:10052C0000F014FC4FF47A71364800F0BDFC3548ED
:10053C0000F0C0FD03469AB2314B1B8813449AB2AB
:10054C002F4B1A807B6801337B607B68EC2BE6DDDC
:10055C002B4B1A882C4BA3FB0213D21A52081344B0
:10056C00DB099AB2264B1A8000222849284802F04F
:10057C0079F9264B1B78274AA2FB0323DB08DBB255
:10058C009BB201211846FFF7DBFD962000F0E2FA42
:10059C001E4B1A781F4BA3FB0213D9080B469B006A
:1005AC000B445B00D31ADBB29BB202211846FFF757
:1005BC00C7FD962000F0CEFA144B5B78154AA2FBCF
:1005CC000323DB08DBB29BB203211846FFF7B8FD0F
:1005DC00962000F0BFFA0D4B5A780E4BA3FB02137A
:1005EC00D9080B469B000B445B00D31ADBB29BB2C1
:1005FC0004211846FFF7A4FD962000F0ABFA88E71B
:10060C00700000202C000020E1F085142800002050
:10061C005C000020CDCCCCCC80B594B000AF07F101
:10062C00280328220021184602F070FD07F114035C
:10063C0000221A605A609A60DA601A613B1D00222F
:10064C001A605A609A60DA600923BB624FF48033F7
:10065C00FB6201233B6400237B6407F128031846EB
:10066C0001F052FA0346002B01D000F013F90F23CE
:10067C007B610123BB610023FB6100233B620023F0
:10068C007B6207F114030021184601F0BDFC034600
:10069C00002B01D000F0FEF803237B604FF40073B5
:1006AC00BB600023FB603B1D184601F033FE034684
:1006BC00002B01D000F0EEF800BF5037BD4680BDD6
:1006CC0080B584B000AF3B1D00221A605A609A605E
:1006DC00184B194A1A60174B00229A60154B0022CE
:1006EC001A73144B00221A75124B4FF46022DA6104
:1006FC00104B00225A600F4B01221A610D4800F07A
:10070C004DFA0346002B01D000F0C4F800237B60A7
:10071C000123BB600023FB603B1D1946054800F01C
:10072C00ABFD0346002B01D000F0B4F800BF10372E
:10073C00BD4680BD2C0000200024014080B582B055
:10074C0000AF3B1D00210A461A800A469A7000230E
:10075C003B601D4B1D4A1A601B4B4FF0FF325A6019
:10076C00194B4FF480729A60174801F04DFF034605
:10077C00002B01D000F08EF815233B7133237B71D5
:10078C003023BB713B1D012219460F4801F0D2FFEB
:10079C000346002B01D000F07DF801233B700123B0
:1007AC007B700123BB700023FB703B460122194672
:1007BC00054802F02FF90346002B01D000F06AF82F
:1007CC0000BF0837BD4680BD5C00002000280040FB
:1007DC0080B588B000AF07F1100300221A605A6090
:1007EC009A60DA60284B9B69274A43F02003936197
:1007FC00254B9B6903F02003FB60FB68224B9B6934
:10080C00214A43F0040393611F4B9B6903F00403DB
:10081C00BB60BB681C4B9B691B4A43F0080393618C
:10082C00194B9B6903F008037B607B6800224FF631
:10083C00E071164801F044F900224FF6FF7114489C
:10084C0001F03EF94FF6E0733B6101237B6100231D
:10085C00BB610223FB6107F1100319460B4800F042
:10086C00B5FF4FF6FF733B6101237B610023BB6136
:10087C000223FB6107F110031946054800F0A6FF9F
:10088C0000BF2037BD4680BD00100240000801406B
:10089C00000C014080B400AF72B600BFFEE7000050
:1008AC0080B485B000AF154B9B69144A43F001032B
:1008BC009361124B9B6903F00103BB60BB680F4B48
:1008CC00DB690E4A43F08053D3610C4BDB6903F0B8
:1008DC0080537B607B680A4B5B68FB60FB6823F092
:1008EC00E063FB60FB6843F08063FB60044AFB68D9
:1008FC00536000BF1437BD4680BC704700100240E7
:10090C000000014080B588B000AF786007F110039B
:10091C0000221A605A609A60DA607B681B68184A79
:10092C00934229D1174B9B69164A43F40073936188
:10093C00144B9B6903F40073FB60FB68114B9B69C0
:10094C00104A43F0040393610E4B9B6903F00403BC
:10095C00BB60BB6801233B6103237B6107F1100380
:10096C001946094800F032FF00220021122000F045
:10097C00F6FE122000F00FFF00BF2037BD4680BDF1
:10098C0000240140001002400008014080B584B0F2
:10099C0000AF78607B681B680B4A934210D101F062
:1009AC00A7F80A4BDB69094A43F00063D361074B94
:1009BC00DB6903F00063FB60FB68054B01221A60E6
:1009CC0000BF1037BD4680BD00280040001002401B
:1009DC003C04424280B400AFFEE780B400AFFEE7B7
:1009EC0080B400AFFEE780B400AFFEE780B400AF88
:1009FC00FEE780B400AF00BFBD4680BC704780B43A
:100A0C0000AF00BFBD4680BC704780B400AF00BFD4
:100A1C00BD4680BC704780B500AF00F07FF800BFCA
:100A2C0080BD000080B500AF024800F04FFB00BF56
:100A3C0080BD00BF2C00002080B400AF00BFBD46BD
:100A4C0080BC70470C480D490D4A002302E0D45875
:100A5C00C4500433C4188C42F9D30A4A0A4C0023FC
:100A6C0001E013600432A242FBD3FFF7E5FF02F072
:100A7C0029FBFFF741FD7047000000200C0000200F
:100A8C00803100080C00002078000020FEE70000F8
:100A9C0080B500AF084B1B68074A43F01003136086
:100AAC00032000F051FE0F2000F008F8FFF7F8FECD
:100ABC000023184680BD00BF0020024080B582B0E4
:100ACC0000AF7860124B1A68124B1B7819464FF422
:100ADC007A73B3FBF1F3B2FBF3F3184600F069FE43
:100AEC000346002B01D001230EE07B680F2B0AD8A4
:100AFC00002279684FF0FF3000F031FE064A7B6827
:100B0C001360002300E0012318460837BD4680BD62
:100B1C0000000020080000200400002080B400AF7A
:100B2C00054B1B781A46054B1B681344034A13608C
:100B3C0000BFBD4680BC7047080000207400002038
:100B4C0080B400AF024B1B681846BD4680BC704792
:100B5C007400002080B584B000AF7860FFF7F0FF20
:100B6C00B8607B68FB60FB68B3F1FF3F05D00A4BB4
:100B7C001B781A46FB681344FB6000BFFFF7E0FFCD
:100B8C000246BB68D31AFA689A42F7D800BF00BF76
:100B9C001037BD4680BD00BF0800002080B586B070
:100BAC0000AF78600023FB7500233B610023BB6022
:100BBC000023FB607B68002B01D10123BEE07B6826
:100BCC009B68002B7B689B6A002B09D17B680022F9
:100BDC00DA627B68002283F824207868FFF792FEA3
:100BEC00786800F09BFC0346FB757B689B6A03F0FE
:100BFC001003002B40F09980FB7D002B40F095807A
:100C0C007B689B6A23F4885323F0020343F00202AF
:100C1C007B689A627B685A687B68DB691A437B68DD
:100C2C001B7B5B001343BA681343BB607B689B68F8
:100C3C00B3F5807F03D07B689B68012B02D14FF406
:100C4C00807300E000233A6913433B617B681B7D92
:100C5C00012B19D17B681B7B002B09D17B689B690D
:100C6C00013B5A033B69134343F400633B610BE0C4
:100C7C007B689B6A43F020027B689A627B68DB6A24
:100C8C0043F001027B68DA627B681B685B6823F4C3
:100C9C0069417B681B683A690A435A607B681B6828
:100CAC009A68284B13407A681268B9680B439360B2
:100CBC007B689B68B3F5807F03D07B689B68012BB6
:100CCC0004D17B681B69013B1B05FB607B681B68BF
:100CDC00DB6A23F470017B681B68FA680A43DA62EA
:100CEC007B681B689A68184B1340BA689A420BD100
:100CFC007B680022DA627B689B6A23F0030343F073
:100D0C0001027B689A6218E07B689B6A23F01203ED
:100D1C0043F010027B689A627B68DB6A43F0010245
:100D2C007B68DA620123FB7507E07B689B6A43F002
:100D3C0010027B689A620123FB75FB7D18461837FD
:100D4C00BD4680BDFDF7E1FFFE0E1FFF80B584B0F0
:100D5C0000AF78600023FB737B6893F82430012B81
:100D6C0001D1022398E07B68012283F82420786863
:100D7C0000F07AFB0346FB73FB7B002B40F0878073
:100D8C007B689B6A23F4407323F0010343F4807265
:100D9C007B689A627B681B68414A934205D1414B40
:100DAC005B6803F47023002B15D17B689B6A23F4DA
:100DBC0080127B689A627B681B685B6803F48063B3
:100DCC00002B26D07B689B6A23F4405343F480525B
:100DDC007B689A621DE07B689B6A43F480127B6897
:100DEC009A627B681B682F4A934204D07B681B680D
:100DFC002B4A93420DD12B4B5B6803F48063002B81
:100E0C0007D07B689B6A23F4405343F480527B6881
:100E1C009A627B689B6A03F48053002B06D07B6834
:100E2C00DB6A23F006027B68DA6202E07B68002250
:100E3C00DA627B68002283F824207B681B686FF0E1
:100E4C0002021A607B681B689B6803F46023B3F58D
:100E5C00602F13D17B681B68114A934205D1114B4B
:100E6C005B6803F47023002B08D17B681B689A68BD
:100E7C007B681B6842F4A0029A600CE07B681B68DC
:100E8C009A687B681B6842F480129A6003E07B6866
:100E9C00002283F82420FB7B18461037BD4680BD0A
:100EAC00002801400024014090B587B000AF786065
:100EBC00396000237B610023FB6000233B61FFF75B
:100ECC003FFE78617B681B689B6803F48073002B82
:100EDC000BD07B689B6A43F020027B689A627B682C
:100EEC00002283F824200123D3E07B681B685B6815
:100EFC0003F48073002B31D17B681B68DB6A03F42D
:100F0C007003002B2AD121E03B68B3F1FF3F1DD0C9
:100F1C003B68002B07D0FFF713FE02467B69D31A00
:100F2C003A689A4212D27B681B681B6803F0020372
:100F3C00002B0BD17B689B6A43F004027B689A629E
:100F4C007B68002283F824200323A2E07B681B68C3
:100F5C001B6803F00203002BD6D070E04F4B1C68CB
:100F6C00022001F08DFA0346B4FBF3F27B681B6898
:100F7C0019694B4B0B40002B18D17B681B68D96847
:100F8C00484B0B40002B11D17B681B681969464BF1
:100F9C000B40002B08D17B681B68D968434B0B4076
:100FAC00002B01D1142320E029231EE07B681B6851
:100FBC0019693D4B0B40002B06D17B681B68D96827
:100FCC003A4B0B40002B0DD07B681B681969384BD2
:100FDC000B40002B08D17B681B68D968344B0B4045
:100FEC00002B01D1542300E0FC2302FB03F33B61F3
:100FFC0021E03B68B3F1FF3F1AD03B68002B07D0D0
:10100C00FFF79EFD02467B69D31A3A689A420FD2CB
:10101C00FB683A699A420BD97B689B6A43F00402DD
:10102C007B689A627B68002283F82420032330E0DB
:10103C00FB680133FB60FB683A699A42D9D87B683C
:10104C001B686FF012021A607B689B6A43F4007293
:10105C007B689A627B681B689B6803F46023B3F51A
:10106C00602F15D17B681B7B002B11D17B689B6A91
:10107C0023F480727B689A627B689B6A03F48053CA
:10108C00002B05D17B689B6A43F001027B689A6256
:10109C00002318461C37BD4690BD00BF0000002041
:1010AC002449922424499200922449129224490002
:1010BC004992240080B483B000AF78607B681B68D1
:1010CC00DB6C18460C37BD4680BC704780B582B0CF
:1010DC0000AF78607B681B685B6803F02003202BF3
:1010EC0040D17B681B681B6803F00203022B39D1CB
:1010FC007B689B6A03F01003002B05D17B689B6A0D
:10110C0043F400727B689A627B681B689B6803F4EB
:10111C006023B3F5602F1DD17B681B7B002B19D18D
:10112C007B681B685A687B681B6822F020025A6037
:10113C007B689B6A23F480727B689A627B689B6AEB
:10114C0003F48053002B05D17B689B6A43F00102AA
:10115C007B689A62786800F07CF87B681B686FF09B
:10116C0012021A607B681B685B6803F08003802B9B
:10117C004FD17B681B681B6803F00403042B48D118
:10118C007B689B6A03F01003002B05D17B689B6A7C
:10119C0043F400527B689A627B681B689B6803F47B
:1011AC00E043B3F5E04F12D07B681B685B6803F437
:1011BC008063002B25D17B681B689B6803F460233C
:1011CC00B3F5602F1DD17B681B7B002B19D17B687D
:1011DC001B685A687B681B6822F080025A607B6827
:1011EC009B6A23F480527B689A627B689B6A03F447
:1011FC008073002B05D17B689B6A43F001027B68EE
:10120C009A62786800F0CBF97B681B686FF00C026F
:10121C001A607B681B685B6803F04003402B14D199
:10122C007B681B681B6803F00103012B0DD17B68E5
:10123C009B6A43F480327B689A62786800F012F8FB
:10124C007B681B686FF001021A6000BF0837BD464F
:10125C0080BD80B483B000AF786000BF0C37BD4652
:10126C0080BC704780B483B000AF786000BF0C378F
:10127C00BD4680BC7047000080B485B000AF78607C
:10128C0039600023FB730023BB607B6893F8243028
:10129C00012B01D10223DCE07B68012283F824209E
:1012AC003B685B68062B1CD87B681B68596B3B68DA
:1012BC005A6813469B001344053B1F2202FA03F3A2
:1012CC00DB4319403B6818683B685A6813469B001F
:1012DC001344053B00FA03F27B681B680A435A630C
:1012EC003CE03B685B680C2B1CD87B681B68196B5B
:1012FC003B685A6813469B001344233B1F2202FA97
:10130C0003F3DB4319403B6818683B685A68134683
:10131C009B001344233B00FA03F27B681B680A43CF
:10132C001A631BE07B681B68D96A3B685A681346D2
:10133C009B001344413B1F2202FA03F3DB43194089
:10134C003B6818683B685A6813469B001344413B42
:10135C0000FA03F27B681B680A43DA623B681B687D
:10136C00092B1CD97B681B68D9683B681A68134623
:10137C005B0013441E3B072202FA03F3DB431940C4
:10138C003B6898683B681A6813465B0013441E3B25
:10139C0000FA03F27B681B680A43DA6019E07B6889
:1013AC001B6819693B681A6813465B0013440722D3
:1013BC0002FA03F3DB4319403B6898683B681A68F0
:1013CC0013465B00134400FA03F27B681B680A4364
:1013DC001A613B681B68102B03D03B681B68112BF0
:1013EC0032D17B681B681D4A934225D17B681B68F0
:1013FC009B6803F40003002B26D17B681B689A685A
:10140C007B681B6842F400029A603B681B68102BD7
:10141C001AD1134B1B68134AA2FB03239A0C1346D5
:10142C009B0013445B00BB6002E0BB68013BBB60EC
:10143C00BB68002BF9D107E07B689B6A43F0200264
:10144C007B689A620123FB737B68002283F824205B
:10145C00FB7B18461437BD4680BC70470024014006
:10146C000000002083DE1B4380B584B000AF7860A1
:10147C000023FB600023BB607B681B689B6803F048
:10148C000103012B40D07B681B689A687B681B6842
:10149C0042F001029A601F4B1B681F4AA2FB0323F8
:1014AC009B0CBB6002E0BB68013BBB60BB68002BC4
:1014BC00F9D1FFF745FBF8601FE0FFF741FB02464F
:1014CC00FB68D31A022B18D97B681B689B6803F046
:1014DC000103012B11D07B689B6A43F010027B68DF
:1014EC009A627B68DB6A43F001027B68DA627B6894
:1014FC00002283F82420012307E07B681B689B688B
:10150C0003F00103012BD8D1002318461037BD4638
:10151C0080BD00BF0000002083DE1B4380B584B07B
:10152C0000AF78600023FB607B681B689B6803F04E
:10153C000103012B2ED17B681B689A687B681B68A2
:10154C0022F001029A60FFF7FBFAF8601BE0FFF74C
:10155C00F7FA0246FB68D31A022B14D97B681B6876
:10156C009B6803F00103012B0DD17B689B6A43F050
:10157C0010027B689A627B68DB6A43F001027B682D
:10158C00DA62012307E07B681B689B6803F00103A8
:10159C00012BDCD0002318461037BD4680BD80B42B
:1015AC0083B000AF786000BF0C37BD4680BC70477D
:1015BC0080B485B000AF78607B6803F00703FB60F4
:1015CC000C4BDB68BB60BA684FF6FF031340BB6083
:1015DC00FB681A02BB68134343F0BF6343F4003348
:1015EC00BB60044ABB68D36000BF1437BD4680BCE7
:1015FC00704700BF00ED00E080B400AF044BDB6827
:10160C001B0A03F007031846BD4680BC704700BF99
:10161C0000ED00E080B483B000AF0346FB7197F996
:10162C000730002B0BDBFB7903F01F02064997F9FF
:10163C0007305B09012000FA02F241F8232000BFB9
:10164C000C37BD4680BC704700E100E080B483B02D
:10165C0000AF03463960FB7197F90730002B0ADBAA
:10166C003B68DAB20C4997F907301201D2B20B443D
:10167C0083F800230AE03B68DAB20849FB7903F0EF
:10168C000F03043B1201D2B20B441A7600BF0C3785
:10169C00BD4680BC704700BF00E100E000ED00E0FB
:1016AC0080B489B000AFF860B9607A60FB6803F071
:1016BC000703FB61FB69C3F10703042B28BF042359
:1016CC00BB61FB690433062B02D9FB69033B00E0C9
:1016DC0000237B614FF0FF32BB6902FA03F3DA435C
:1016EC00BB681A407B699A404FF0FF317B6901FA65
:1016FC0003F3D9437B680B40134318462437BD468C
:10170C0080BC704780B582B000AF78607B68013BCD
:10171C00B3F1807F01D301230FE00A4A7B68013BC0
:10172C0053600F214FF0FF30FFF790FF054B002265
:10173C009A60044B07221A60002318460837BD46EE
:10174C0080BD00BF10E000E080B582B000AF7860D3
:10175C007868FFF72DFF00BF0837BD4680BD80B508
:10176C0086B000AF0346B9607A60FB7300237B61DF
:10177C00FFF742FF78617A68B9687869FFF790FFE4
:10178C00024697F90F3011461846FFF75FFF00BF6E
:10179C001837BD4680BD80B582B000AF0346FB71E3
:1017AC0097F907301846FFF735FF00BF0837BD46DD
:1017BC0080BD80B582B000AF78607868FFF7A2FF7B
:1017CC00034618460837BD4680BD000080B48BB078
:1017DC0000AF7860396000237B6200233B6248E1F4
:1017EC0001227B6A02FA03F3FB613B681B68FA690E
:1017FC001340BB61BA69FB699A4240F037813B6880
:10180C005B68A34A93425ED0A14A934275D8A14A21
:10181C00934258D09F4A93426FD89F4A934252D0DA
:10182C009D4A934269D89D4A93424CD09B4A93421D
:10183C0063D89B4A934246D0994A93425DD8122B67
:10184C002AD8122B59D801A252F823F0D318000829
:10185C00AD180008BF180008011900080719000886
:10186C0007190008071900080719000807190008CC
:10187C0007190008071900080719000807190008BC
:10188C0007190008071900080719000807190008AC
:10189C00B5180008C9180008824A934213D02CE0EE
:1018AC003B68DB683B6229E03B68DB6804333B62E6
:1018BC0024E03B68DB6808333B621FE03B68DB6875
:1018CC000C333B621AE03B689B68002B02D104236B
:1018DC003B6213E03B689B68012B05D108233B62FC
:1018EC007B68FA691A6109E008233B627B68FA6934
:1018FC005A6103E000233B6200E000BFBB69FF2B91
:10190C0001D87B6801E07B6804337B61BB69FF2BEA
:10191C0002D87B6A9B0002E07B6A083B9B003B6120
:10192C007B691A680F213B6901FA03F3DB431A4008
:10193C00396A3B6901FA03F31A437B691A603B6805
:10194C005B6803F08053002B00F09080564B9B6932
:10195C00554A43F001039361534B9B6903F0010318
:10196C00BB60BB68514A7B6A9B08023352F8233038
:10197C00FB607B6A03F003039B000F2202FA03F364
:10198C00DB43FA681340FB607B68494A93420DD0F5
:10199C007B68484A934207D07B68474A934201D1FF
:1019AC00022304E0032302E0012300E000237A6A0F
:1019BC0002F0030292009340FA681343FB603B4928
:1019CC007B6A9B080233FA6841F823203B685B680A
:1019DC0003F48033002B06D0384B1A683749BB69A7
:1019EC0013430B6006E0354B1A68BB69DB43334984
:1019FC0013400B603B685B6803F40033002B06D08C
:101A0C002E4B5A682D49BB6913434B6006E02B4B98
:101A1C005A68BB69DB43294913404B603B685B68E0
:101A2C0003F48013002B06D0244B9A682349BB691E
:101A3C0013438B6006E0214B9A68BB69DB431F495B
:101A4C0013408B603B685B6803F40013002B06D0DB
:101A5C001A4BDA681949BB691343CB6006E0174B84
:101A6C00DA68BB69DB4315491340CB607B6A0133F1
:101A7C007B623B681A687B6A22FA03F3002B7FF4C3
:101A8C00AFAE00BF00BF2C37BD4680BC704700BF57
:101A9C000000321000003110000022100000211054
:101AAC000000121000001110001002400000014054
:101ABC0000080140000C01400010014000040140EE
:101ACC0080B483B000AF78600B467B8013467B708C
:101ADC007B78002B03D07A887B681A6103E07B88C3
:101AEC001A047B681A6100BF0C37BD4680BC704776
:101AFC0080B400AF034B01221A6000BFBD4680BC0E
:101B0C00704700BF20000E4280B586B000AF7860F1
:101B1C007B68002B01D101236CE27B681B6803F00E
:101B2C000103002B00F08780924B5B6803F00C03E1
:101B3C00042B0CD08F4B5B6803F00C03082B12D1D9
:101B4C008C4B5B6803F48033B3F5803F0BD1894B2E
:101B5C001B6803F40033002B6CD07B685B68002B94
:101B6C0068D1012346E27B685B68B3F5803F06D100
:101B7C00804B1B687F4A43F4803313602EE07B68F4
:101B8C005B68002B0CD17B4B1B687A4A23F48033A7
:101B9C001360784B1B68774A23F4802313601DE095
:101BAC007B685B68B3F5A02F0CD1724B1B68714A34
:101BBC0043F4802313606F4B1B686E4A43F48033ED
:101BCC0013600BE06B4B1B686A4A23F48033136081
:101BDC00684B1B68674A23F4802313607B685B683F
:101BEC00002B13D0FEF7ACFF386108E0FEF7A8FF1E
:101BFC0002463B69D31A642B01D90323FAE15D4BEE
:101C0C001B6803F40033002BF0D014E0FEF798FFB0
:101C1C00386108E0FEF794FF02463B69D31A642B47
:101C2C0001D90323E6E1534B1B6803F40033002B6B
:101C3C00F0D100E000BF7B681B6803F00203002BAF
:101C4C0063D04C4B5B6803F00C03002B0BD0494B5F
:101C5C005B6803F00C03082B1CD1464B5B6803F448
:101C6C008033002B16D1434B1B6803F00203002B6F
:101C7C0005D07B681B69012B01D00123BAE13D4BD8
:101C8C001B6823F0F8027B685B69DB00394913435E
:101C9C000B603AE07B681B69002B20D0364B01228D
:101CAC001A60FEF74DFF386108E0FEF749FF024667
:101CBC003B69D31A022B01D903239BE12D4B1B68E3
:101CCC0003F00203002BF0D02A4B1B6823F0F80220
:101CDC007B685B69DB00274913430B6015E0264BDF
:101CEC0000221A60FEF72CFF386108E0FEF728FF8F
:101CFC0002463B69D31A022B01D903237AE11D4B0F
:101D0C001B6803F00203002BF0D17B681B6803F007
:101D1C000803002B3AD07B689B69002B19D0174B1A
:101D2C0001221A60FEF70CFF386108E0FEF708FF8D
:101D3C0002463B69D31A022B01D903235AE10D4BFE
:101D4C005B6A03F00203002BF0D0012000F0C4FA10
:101D5C001CE00A4B00221A60FEF7F2FE38610FE01D
:101D6C00FEF7EEFE02463B69D31A022B08D9032379
:101D7C0040E100BF00100240000042428004424299
:101D8C009E4B5B6A03F00203002BE9D17B681B6856
:101D9C0003F00403002B00F0A6800023FB75974B87
:101DAC00DB6903F08053002B0DD1944BDB69934A14
:101DBC0043F08053D361914BDB6903F08053BB60DC
:101DCC00BB680123FB758E4B1B6803F48073002BDF
:101DDC0018D18B4B1B688A4A43F480731360FEF74F
:101DEC00AFFE386108E0FEF7ABFE02463B69D31A42
:101DFC00642B01D90323FDE0814B1B6803F4807332
:101E0C00002BF0D07B68DB68012B06D17B4B1B6A67
:101E1C007A4A43F0010313622DE07B68DB68002BE8
:101E2C000CD1764B1B6A754A23F001031362734B7A
:101E3C001B6A724A23F0040313621CE07B68DB68A4
:101E4C00052B0CD16D4B1B6A6C4A43F004031362D7
:101E5C006A4B1B6A694A43F0010313620BE0674B40
:101E6C001B6A664A23F001031362644B1B6A634AC4
:101E7C0023F0040313627B68DB68002B15D0FEF79C
:101E8C005FFE38610AE0FEF75BFE02463B69D31A3F
:101E9C0041F28832934201D90323ABE0574B1B6AC2
:101EAC0003F00203002BEED014E0FEF749FE38617C
:101EBC000AE0FEF745FE02463B69D31A41F288322E
:101ECC00934201D9032395E04C4B1B6A03F00203A8
:101EDC00002BEED1FB7D012B05D1484BDB69474A2A
:101EEC0023F08053D3617B68DB69002B00F0818089
:101EFC00424B5B6803F00C03082B61D07B68DB69F9
:101F0C00022B46D13F4B00221A60FEF719FE3861B6
:101F1C0008E0FEF715FE02463B69D31A022B01D9E5
:101F2C00032367E0354B1B6803F00073002BF0D1E3
:101F3C007B681B6AB3F5803F08D1304B5B6823F498
:101F4C0000327B689B682D4913434B602B4B5B68BD
:101F5C0023F474127B68196A7B685B6A0B4327490C
:101F6C0013434B60274B01221A60FEF7E9FD3861E1
:101F7C0008E0FEF7E5FD02463B69D31A022B01D9B6
:101F8C00032337E01D4B1B6803F00073002BF0D0CC
:101F9C002FE01C4B00221A60FEF7D2FD386108E0DE
:101FAC00FEF7CEFD02463B69D31A022B01D903235F
:101FBC0020E0124B1B6803F00073002BF0D118E0EB
:101FCC007B68DB69012B01D1012313E00B4B5B68B0
:101FDC00FB60FB6803F480327B681B6A9A4206D173
:101FEC00FB6803F470127B685B6A9A4201D0012390
:101FFC0000E0002318461837BD4680BD0010024093
:10200C00007000406000424280B584B000AF786040
:10201C0039607B68002B01D10123D0E06A4B1B682F
:10202C0003F007033A689A4210D9674B1B6823F0F8
:10203C00070265493B6813430B60634B1B6803F055
:10204C0007033A689A4201D00123B8E07B681B6809
:10205C0003F00203002B20D07B681B6803F0040301
:10206C00002B05D0594B5B68584A43F4E06353602E
:10207C007B681B6803F00803002B05D0534B5B688F
:10208C00524A43F460535360504B5B6823F0F002A8
:10209C007B689B684D4913434B607B681B6803F05E
:1020AC000103002B40D07B685B68012B07D1474BA9
:1020BC001B6803F40033002B15D101237FE07B68F0
:1020CC005B68022B07D1414B1B6803F00073002B9C
:1020DC0009D1012373E03D4B1B6803F00203002B75
:1020EC0001D101236BE0394B5B6823F003027B6861
:1020FC005B68364913434B60FEF722FDF8600AE03B
:10210C00FEF71EFD0246FB68D31A41F28832934259
:10211C0001D9032353E02D4B5B6803F00C027B6861
:10212C005B689B009A42EBD1274B1B6803F00703BB
:10213C003A689A4210D2244B1B6823F007022249BA
:10214C003B6813430B60204B1B6803F007033A6892
:10215C009A4201D0012332E07B681B6803F0040330
:10216C00002B08D0194B5B6823F4E0627B68DB68BA
:10217C00164913434B607B681B6803F00803002B64
:10218C0009D0124B5B6823F460527B681B69DB003F
:10219C000E4913434B6000F021F802460B4B5B6871
:1021AC001B0903F00F030A49CB5C22FA03F3094A1B
:1021BC001360094B1B681846FEF780FC0023184679
:1021CC001037BD4680BD00BF002002400010024009
:1021DC0060310008000000200400002090B48AB098
:1021EC0000AF2A4B3C1D0FCB84E80F0040F20123BB
:1021FC003B800023FB610023BB6100237B62002337
:10220C007B6100233B62224B5B68FB61FB6903F043
:10221C000C03042B02D0082B03D02DE01D4B3B628A
:10222C002DE0FB699B0C03F00F0307F1280213440C
:10223C0013F8243C7B61FB6903F48033002B13D02F
:10224C00134B5B685B0C03F0010307F1280213448A
:10225C0013F8283CBB617B690E4A02FB03F2BB6995
:10226C00B2FBF3F37B6204E07B690B4A02FB03F3E2
:10227C007B627B6A3B6202E0064B3B6200BF3B6ABF
:10228C0018462837BD4690BC704700BF4031000847
:10229C000010024000127A0000093D0080B400AF2B
:1022AC00024B1B681846BD4680BC704700000020DE
:1022BC0080B500AFFFF7F2FF0246054B5B68DB0A07
:1022CC0003F007030349CB5C22FA03F3184680BDE5
:1022DC00001002407031000880B485B000AF786007
:1022EC000A4B1B680A4AA2FB03235B0A7A6802FBAF
:1022FC0003F3FB6000BFFB685A1EFA60002BF9D198
:10230C0000BF00BF1437BD4680BC704700000020E2
:10231C00D34D621080B586B000AF786000233B616E
:10232C000023FB607B681B6803F00103002B7DD04E
:10233C000023FB754F4BDB6903F08053002B0DD151
:10234C004C4BDB694B4A43F08053D361494BDB69FF
:10235C0003F08053BB60BB680123FB75464B1B68C5
:10236C0003F48073002B18D1434B1B68424A43F48F
:10237C0080731360FEF7E4FB386108E0FEF7E0FBC6
:10238C0002463B69D31A642B01D903236DE03A4B07
:10239C001B6803F48073002BF0D0364B1B6A03F4DC
:1023AC004073FB60FB68002B2ED07B685B6803F4EA
:1023BC004073FA689A4227D02E4B1B6A23F4407361
:1023CC00FB602E4B01221A602C4B00221A60294A0A
:1023DC00FB681362FB6803F00103002B14D0FEF7BB
:1023EC00AFFB38610AE0FEF7ABFB02463B69D31A40
:1023FC0041F28832934201D9032336E01D4B1B6A0C
:10240C0003F00203002BEED01A4B1B6A23F440722C
:10241C007B685B68174913430B62FB7D012B05D16D
:10242C00144BDB69134A23F08053D3617B681B6820
:10243C0003F00203002B08D00E4B5B6823F44042E0
:10244C007B689B680B4913434B607B681B6803F0EC
:10245C001003002B08D0074B5B6823F480027B68C9
:10246C00DB68044913434B60002318461837BD46FC
:10247C0080BD00BF0010024000700040400442428A
:10248C0090B58DB000AF78605A4B07F10C040FCBB0
:10249C0084E80F0040F201233B8100237B62002380
:1024AC00FB6200233B620023FB610023BB627B6861
:1024BC00102B0AD07B68102B00F291807B68012BCB
:1024CC004CD07B68022B7CD089E04B4B5B68FB616A
:1024DC00494B1B6803F08073002B00F08280FB6972
:1024EC009B0C03F00F0307F13002134413F8243C48
:1024FC003B62FB6903F48033002B18D03E4B5B68C6
:10250C005B0C03F0010307F13002134413F8283C71
:10251C007B62FB6903F48033002B0DD0374A7B6A56
:10252C00B2FBF3F23B6A02FB03F3FB6204E03B6A8F
:10253C00334A02FB03F3FB622F4B5B6803F480030B
:10254C00B3F5800F02D1FB6ABB624AE0FB6A5B0009
:10255C002C4AA2FB03235B08BB6242E0264B1B6A9E
:10256C00FB61FB6903F44073B3F5807F08D1FB6911
:10257C0003F00203002B03D04FF40043BB621FE0B7
:10258C00FB6903F44073B3F5007F09D11A4B5B6A06
:10259C0003F00203002B03D049F64043BB620FE06B
:1025AC00FB6903F44073B3F5407F1CD1124B1B68DD
:1025BC0003F40033002B16D04FF22443BB6212E01D
:1025CC0011E0FFF775FE02460B4B5B689B0B03F0AB
:1025DC00030301335B00B2FBF3F3BB6204E000BF07
:1025EC0002E000BF00E000BFBB6A18463437BD46AE
:1025FC0090BD00BF503100080010024000127A005C
:10260C0000093D00ABAAAAAA80B584B000AF7860DF
:10261C000023FB607B68002B01D1012384E07B68E5
:10262C005B7CDBB2002B05D17B6800221A747868C6
:10263C00FEF7ACF97B6802225A74786800F0A0FAB5
:10264C000346002B04D07B6804225A7401236BE0F0
:10265C00786800F059FB0346002B04D07B680422F9
:10266C005A74012360E07B681B685A687B681B689E
:10267C0022F007025A607B689B68002B05D02C4B1C
:10268C001B6B2B4A23F001031363294BDB6A23F4E6
:10269C0060727B689B6826491343CB627B685B68DE
:1026AC00B3F1FF3F03D07B685B68FB600EE0012059
:1026BC00FFF7E6FEF860FB68002B04D17B68042270
:1026CC005A74012330E0FB68013BFB607B681B689C
:1026DC009B6823F00F01FB681A0C7B681B680A438C
:1026EC009A607B681B68DB681B0C1B04FA6891B250
:1026FC007A6812680B43D360786800F02DFB0346B0
:10270C00002B04D07B6804225A7401230CE07B68F4
:10271C000022DA737B6801225A737B6801229A7358
:10272C007B6801225A74002318461037BD4680BDC1
:10273C00006C004090B587B000AFF860B9607A606B
:10274C0000237B6100233B61FB68002B02D0BB683C
:10275C00002B01D1012380E0FB681B7C012B01D1F4
:10276C0002237AE0FB6801221A74FB6802225A7475
:10277C007B68002B13D1BB681B781A464FF461633E
:10278C0003FB02F2BB685B7819460B461B015B1A14
:10279C009B001344BA68927813447B611EE0BB68BB
:1027AC001B78184600F01DFB03461A464FF4616374
:1027BC0003FB02F4BB685B78184600F012FB03467F
:1027CC001A4613461B019B1A9B001C44BB689B7842
:1027DC00184600F006FB034623447B617969F868D0
:1027EC0000F02BFA0346002B07D0FB6804225A7426
:1027FC00FB6800221A7401232FE0FB681B685A68DF
:10280C00FB681B6822F005025A60F86800F03CFA7D
:10281C0038613B69B3F1FF3F18D03A697B699A4242
:10282C0014D23B6903F5A83303F5C0733B613969D6
:10283C00F86800F042FA0346002B07D0FB6804222C
:10284C005A74FB6800221A74012306E0FB6801220B
:10285C005A74FB6800221A74002318461C37BD46B4
:10286C0090BD000080B588B000AFF860B9607A60A8
:10287C000023BB610023FB6100237B6100233B61D0
:10288C00FB68002B02D0BB68002B01D10123B5E003
:10289C00FB681B685B6803F00403002B01D0012369
:1028AC00ACE0F86800F099F9B861BB69554AA2FB35
:1028BC000323DB0A3B61BA69524BA3FB0213DB0A0D
:1028CC004FF4616101FB03F3D31A4F4AA2FB0323BC
:1028DC005B09DAB2BB685A70BB694A4AA2FB0312A5
:1028EC00D20A4FF4616101FB02F29A1A464BA3FB28
:1028FC00021359090B461B015B1A9B00D11ACAB271
:10290C00BB689A703B69172B55D93B693F4AA2FBB0
:10291C0003231B097B6139693C4BA3FB01231A0977
:10292C0013465B001344DB00CA1AD2B2BB681A70A0
:10293C00F86800F0A9F9F861FB69B3F1FF3F08D022
:10294C00FA69BB699A4204D9FA69BB69D31AFB616B
:10295C0002E04FF0FF33FB617B692D4A02FB03F36E
:10296C00BA69D31ABB61B969F86800F066F9034615
:10297C00002B01D0012341E0FB69B3F1FF3F0CD0E8
:10298C00FA69BB691344FB61F969F86800F095F9C1
:10299C000346002B0AD0012330E0F969F86800F0F7
:1029AC008CF90346002B01D0012327E07969F868E4
:1029BC0000F034FA03E03B69DAB2BB681A707B684A
:1029CC00002B1AD0BB681B78184600F0EDF90346B3
:1029DC001A46BB681A70BB685B78184600F0E4F9BD
:1029EC0003461A46BB685A70BB689B78184600F0C1
:1029FC00DBF903461A46BB689A7000231846203749
:102A0C00BD4680BDC5B3A29189888888ABAAAAAA05
:102A1C008051010080B588B000AFF860B9607A6071
:102A2C000023FB610023BB6100237B61FB68002B4F
:102A3C0002D0BB68002B01D1012397E0FB681B7C03
:102A4C00012B01D1022391E0FB6801221A74FB686F
:102A5C0002225A747B68002B0CD1BB68DA78FB68B5
:102A6C00DA73BB685A78FB685A73BB689A78FB6850
:102A7C009A731AE0BB68DB78184600F0B2F903468B
:102A8C001A46FB68DA73BB685B78184600F0A9F944
:102A9C0003461A46FB685A73BB689B78184600F0CD
:102AAC00A0F903461A46FB689A73FB68DB7B184651
:102ABC00FB68597BFB689B7B1A4600F08BFA03463C
:102ACC001A46FB681A73FB681A7BBB681A70F868A5
:102ADC0000F083F8F861FB69264AA2FB0323DB0AAA
:102AEC007B617B69182B3AD97B69234AA2FB0323B0
:102AFC001B09224A02FB03F3FA69D31AFB61F96939
:102B0C00F86800F09AF80346002B07D0FB68042203
:102B1C005A74FB6800221A74012327E0F86800F04D
:102B2C00B3F8B861BB69B3F1FF3F18D0BA69FB6960
:102B3C009A4214D2BB6903F5A83303F5C073BB6189
:102B4C00B969F86800F0B9F80346002B07D0FB68A8
:102B5C0004225A74FB6800221A74012306E0FB68F5
:102B6C0001225A74FB6800221A740023184620377D
:102B7C00BD4680BDC5B3A291ABAAAAAA80510100E3
:102B8C0080B584B000AF78600023FB607B68002BBD
:102B9C0001D101231DE07B681B685A687B681B68A8
:102BAC0022F008025A60FDF7CBFFF86009E0FDF750
:102BBC00C7FF0246FB68D31AB3F57A7F01D903230A
:102BCC0007E07B681B685B6803F00803002BEED002
:102BDC00002318461037BD4680BD80B487B000AFC7
:102BEC00786000237B8200233B820023FB8100233F
:102BFC007B617B681B689B697B827B681B68DB69DC
:102C0C00FB817B681B689B693B827A8A3B8A9A4270
:102C1C0008D03B8A1A047B681B68DB699BB21343A0
:102C2C007B6104E07B8A1A04FB8913437B617B691B
:102C3C0018461C37BD4680BC704780B584B000AFC9
:102C4C00786039600023FB73786800F05DF8034608
:102C5C00002B02D00123FB7311E07B681B683A68E0
:102C6C00120C9A617B681B683A6892B2DA617868D8
:102C7C0000F072F80346002B01D00123FB73FB7BA1
:102C8C0018461037BD4680BD80B485B000AF786063
:102C9C000023FB810023BB817B681B681B6AFB81C3
:102CAC007B681B685B6ABB81FB891A04BB89134375
:102CBC0018461437BD4680BC704780B584B000AF51
:102CCC00786039600023FB73786800F01DF80346C8
:102CDC00002B02D00123FB7311E07B681B683A6860
:102CEC00120C1A627B681B683A6892B25A62786856
:102CFC0000F032F80346002B01D00123FB73FB7B61
:102D0C0018461037BD4680BD80B584B000AF7860E2
:102D1C000023FB60FDF714FFF86009E0FDF710FFDE
:102D2C000246FB68D31AB3F57A7F01D903230FE06F
:102D3C007B681B685B6803F02003002BEED07B687C
:102D4C001B685A687B681B6842F010025A600023AB
:102D5C0018461037BD4680BD80B584B000AF786092
:102D6C000023FB607B681B685A687B681B6822F039
:102D7C0010025A60FDF7E4FEF86009E0FDF7E0FE92
:102D8C000246FB68D31AB3F57A7F01D9032307E017
:102D9C007B681B685B6803F02003002BEED00023DC
:102DAC0018461037BD4680BD80B485B000AF0346D1
:102DBC00FB710023FB6005E0FB680133FB60FB79D2
:102DCC000A3BFB71FB79092BF6D8FB68DBB21B01C4
:102DDC00DAB2FB791343DBB218461437BD4680BC1C
:102DEC00704780B485B000AF0346FB710023FB60D5
:102DFC00FB791B09DBB21A4613469B0013445B009C
:102E0C00FB60FB7903F00F03DAB2FB68DBB213440F
:102E1C00DBB218461437BD4680BC704780B586B00F
:102E2C0000AF7860396000237B6100233B61002395
:102E3C00FB600023BB607B68DB7B7B617B685B7B1F
:102E4C003B617B689B7BFB600023BB606FE03B6955
:102E5C00012B11D03B69032B0ED03B69052B0BD0FA
:102E6C003B69072B08D03B69082B05D03B690A2B23
:102E7C0002D03B690C2B17D1FB681E2B03D8FB68C7
:102E8C000133FB6050E03B690C2B05D03B690133EF
:102E9C003B610123FB6047E001233B610123FB60A5
:102EAC007B6901337B613FE03B69042B08D03B69B4
:102EBC00062B05D03B69092B02D03B690B2B0CD19F
:102ECC00FB681D2B03D8FB680133FB602CE03B69CE
:102EDC0001333B610123FB6026E03B69022B23D1CC
:102EEC00FB681B2B03D8FB680133FB601CE0FB6801
:102EFC001C2B11D17B699BB2184600F039F80346A4
:102F0C00002B03D0FB680133FB600DE03B69013300
:102F1C003B610123FB6007E0FB681D2B04D13B697F
:102F2C0001333B610123FB60BB680133BB60BA68B2
:102F3C003B689A428BD37B69DAB27B68DA733B6964
:102F4C00DAB27B685A73FB68DAB27B689A733B69B6
:102F5C00DBB2FA68D2B21946786900F03BF8034646
:102F6C001A467B681A7300BF1837BD4680BD000037
:102F7C0080B483B000AF0346FB80FB8803F00303EF
:102F8C009BB2002B01D000231DE0FB88104AA2FB52
:102F9C0003125209642101FB02F29B1A9BB2002B13
:102FAC0001D001230FE0FB88094AA2FB0312D209CE
:102FBC004FF4C87101FB02F29B1A9BB2002B01D19A
:102FCC00012300E0002318460C37BD4680BC704737
:102FDC001F85EB5180B485B000AF78600B46FB7059
:102FEC001346BB700023BB600023FB607B6803F5BA
:102FFC00FA63BB60FB78022B2DD8FA7813465B0082
:10300C001344DB009B1A2C4AA2FB03235A08BB78FF
:10301C001A44BB681A44BB68013B9B081A44BB6842
:10302C00013B2649A1FB03135B09D21ABB68013B88
:10303C002249A1FB0313DB0913441A1D204BA3FBEC
:10304C000213D11A49080B4499080B46DB005B1A92
:10305C00D31AFB6029E0FA7813465B001344DB00BB
:10306C009B1A154AA2FB03235A08BB781A44BB6867
:10307C001A44BB689B081A44BB681049A1FB031394
:10308C005B09D21ABB680D49A1FB0313DB0913447E
:10309C009A1C0B4BA3FB0213D11A49080B44990839
:1030AC000B46DB005B1AD31AFB60FB68DBB21846DD
:1030BC001437BD4680BC7047398EE3381F85EB5101
:1030CC002549922470B500260C4D0D4C641BA410A0
:1030DC00A64209D100F022F800260A4D0A4C641BC6
:1030EC00A410A64205D170BD55F8043B9847013693
:1030FC00EEE755F8043B98470136F2E778310008C3
:10310C0078310008783100087C310008034602440D
:10311C00934200D1704703F8011BF9E7F8B500BFE3
:10312C00F8BC08BC9E467047F8B500BFF8BC08BC9C
:04313C009E467047F4
:1031400002030405060708090A0B0C0D0E0F1010E8
:1031500002030405060708090A0B0C0D0E0F1010D8
:103160000000000000000000010203040607080937
:0831700000000000010203044D
:043178003101000819
:04317C000D01000839
:0C3180000024F40010000000010000001A
:0400000508000A5194
:00000001FF
